:020000020000FC
:0400000071C118951D
:10000800AEC1000000008F938FE08A95F1F78F91C1
:100018000895F7DF6A95E9F77A95D9F7089560E0CA
:1000280074E0F7DF08950F93259A279A249A0CE530
:100038000CBD0DB50EB50F9108950F9328982C9807
:100048000F910EBD0DB507FFFDCF0EB52C9A089583
:100058000F93289A2C980DB50EB50F910EBD0DB5BE
:1000680007FFFDCF0EB52C9A0895DDDFD8DF09E331
:10007800E4DFC7DF09E3E1DFC4DF0EE1DEDFC1DF74
:1000880000E5DBDFBEDF0CE6D8DFC9DF07E7D5DF39
:10009800B8DF0CE0D2DFB5DF01E0CFDFB2DF06E08A
:1000A800CCDFAFDF0895BFDF40E14F93F1E0E0E040
:1000B80000E8C3DFA6DF0191CBDFA3DF4A95D9F7BC
:1000C8004F914F93F1E0E0E100E9B7DF9ADF01914A
:1000D800BFDF97DF4A95D9F74F91F1E0E0E200EAF8
:1000E800ACDF8FDF0191B4DF8CDF4A95D9F7089533
:1000F80020E1FF24EE24DD24FF27000F111FDD1C63
:10010800EE1CFF1C2A9509F40895E0E132913D5F49
:1001180033FD30833081305D37FD3083ED30B1F70A
:10012800ECCFCC24DD24EE24FF1811E2221F331F6C
:10013800441F551F1A9509F40895CC1CDD1CEE1CAC
:10014800FF1CC61AD70AE80AF90A30F4C60ED71EE9
:10015800E81EF91E8894EACF0894E8CFD1E0C0E001
:100168000591013021F06096023009F06096059102
:10017800003011F00993FBCF0F2D3ED00E2D007FDC
:10018800069506950695069537D00E2D0F7034D036
:100198000D2D007F06950695069506952DD00D2DFB
:1001A8000F702AD00895D1E0C0E005910130F9F22E
:1001B80060960230E1F2609605910030E9F2099309
:1001C800D6CF0F2D19D00E2D007F069506950695D2
:1001D800069512D00E2D0F700FD00D2D007F0695AD
:1001E80006950695069508D00D2D0F7005D008E4E4
:1001F80009930AE709930895003011F44DD0089542
:10020800013011F446D00895023011F448D0089511
:10021800033011F447D00895043011F446D00895FE
:10022800053011F445D00895063011F444D00895EE
:10023800073011F443D00895083011F442D00895DE
:10024800093011F441D008950A3019F422D024D08D
:1002580008950B3019F41DD01CD008950C3019F4F2
:1002680018D01DD008950D3019F413D01BD008955F
:100278000E3019F40ED019D008950BD010D012D02A
:10028800089590E3A0E2F1E0E0E0A1939A95E9F700
:10029800089501E30993089500E30993089502E39B
:1002A8000993089503E30993089504E309930895CE
:1002B80005E30993089506E30993089507E309936D
:1002C800089508E30993089509E3099308950EE250
:1002D8000993089505E703E7099308950FEF0DBF04
:1002E80008E00EBF0EE001B901EF02B90FEF04B943
:1002F8002C9A00E007B903E008B9B7DE00E00093E4
:1003080085000093840000938000009381000CE036
:1003180000936900789402E00DBBEDF7D89400E0F3
:100328000DBB642F752F8827992720E432E44FE00E
:1003380050E0F7DE6F937F93622F732F5F914F9199
:10034800A0DF172F062FD4DEF3E0E6E92CDF152F08
:10035800042FCEDEF3E0E2EA01DFA5DEDCCF0F9367
:1003680080F4000000E000938100409184005091E7
:1003780085000093850000938400889458940F9119
:10038800189501E00093810008940F911895014693
:100398007271203D20202020000002507264203D10
:0603A800202020200000CF
:00000001FF
